:020000040000FA
:060000000A128A11FC2F18
:100F10004130831203139F008030831603139F0018
:100F20000800F40008307402031C972F982F9B2FA1
:100F3000F001F101C02FC530F200720883120313D3
:100F40009F057408F20002300310F20DFF3E031DEE
:100F5000A42F0310720DF30073089F040930F200F0
:100F6000F20BB02FB32F831203131F151F19B92FC4
:100F7000BA2FB62F1E08F100831603131E08F000C7
:100F800008005230F7000330F8000A128A1188274F
:100F90000A128A118316031387138312031387130C
:100FA00000300A128A1191270A128A117108FA0078
:100FB0007008F9007A087802031DE02F790877029B
:100FC0000318E32FE42FF12F8030831203138706D9
:100FD0000D30F600FB30F500F50BEC2FF60BEC2F87
:100FE000F12FC730F500F42FF50BF32FF72FF82F63
:100FF000D02F0A128A11002883010A128A11C12FE8
:02400E00313F40
:00000001FF
